{
  "contractName": "MyToken",
  "abi": [
    {
      "inputs": [],
      "stateMutability": "nonpayable",
      "type": "constructor"
    },
    {
      "anonymous": false,
      "inputs": [
        {
          "indexed": true,
          "internalType": "address",
          "name": "account",
          "type": "address"
        },
        {
          "indexed": true,
          "internalType": "address",
          "name": "operator",
          "type": "address"
        },
        {
          "indexed": false,
          "internalType": "bool",
          "name": "approved",
          "type": "bool"
        }
      ],
      "name": "ApprovalForAll",
      "type": "event"
    },
    {
      "anonymous": false,
      "inputs": [
        {
          "indexed": true,
          "internalType": "address",
          "name": "previousOwner",
          "type": "address"
        },
        {
          "indexed": true,
          "internalType": "address",
          "name": "newOwner",
          "type": "address"
        }
      ],
      "name": "OwnershipTransferred",
      "type": "event"
    },
    {
      "anonymous": false,
      "inputs": [
        {
          "indexed": false,
          "internalType": "address",
          "name": "_sender",
          "type": "address"
        },
        {
          "indexed": false,
          "internalType": "uint256",
          "name": "_value",
          "type": "uint256"
        },
        {
          "indexed": false,
          "internalType": "string",
          "name": "_message",
          "type": "string"
        }
      ],
      "name": "Received",
      "type": "event"
    },
    {
      "anonymous": false,
      "inputs": [
        {
          "indexed": true,
          "internalType": "address",
          "name": "operator",
          "type": "address"
        },
        {
          "indexed": true,
          "internalType": "address",
          "name": "from",
          "type": "address"
        },
        {
          "indexed": true,
          "internalType": "address",
          "name": "to",
          "type": "address"
        },
        {
          "indexed": false,
          "internalType": "uint256[]",
          "name": "ids",
          "type": "uint256[]"
        },
        {
          "indexed": false,
          "internalType": "uint256[]",
          "name": "values",
          "type": "uint256[]"
        }
      ],
      "name": "TransferBatch",
      "type": "event"
    },
    {
      "anonymous": false,
      "inputs": [
        {
          "indexed": true,
          "internalType": "address",
          "name": "operator",
          "type": "address"
        },
        {
          "indexed": true,
          "internalType": "address",
          "name": "from",
          "type": "address"
        },
        {
          "indexed": true,
          "internalType": "address",
          "name": "to",
          "type": "address"
        },
        {
          "indexed": false,
          "internalType": "uint256",
          "name": "id",
          "type": "uint256"
        },
        {
          "indexed": false,
          "internalType": "uint256",
          "name": "value",
          "type": "uint256"
        }
      ],
      "name": "TransferSingle",
      "type": "event"
    },
    {
      "anonymous": false,
      "inputs": [
        {
          "indexed": false,
          "internalType": "string",
          "name": "value",
          "type": "string"
        },
        {
          "indexed": true,
          "internalType": "uint256",
          "name": "id",
          "type": "uint256"
        }
      ],
      "name": "URI",
      "type": "event"
    },
    {
      "inputs": [
        {
          "internalType": "address",
          "name": "account",
          "type": "address"
        },
        {
          "internalType": "uint256",
          "name": "id",
          "type": "uint256"
        }
      ],
      "name": "balanceOf",
      "outputs": [
        {
          "internalType": "uint256",
          "name": "",
          "type": "uint256"
        }
      ],
      "stateMutability": "view",
      "type": "function",
      "constant": true
    },
    {
      "inputs": [
        {
          "internalType": "address[]",
          "name": "accounts",
          "type": "address[]"
        },
        {
          "internalType": "uint256[]",
          "name": "ids",
          "type": "uint256[]"
        }
      ],
      "name": "balanceOfBatch",
      "outputs": [
        {
          "internalType": "uint256[]",
          "name": "",
          "type": "uint256[]"
        }
      ],
      "stateMutability": "view",
      "type": "function",
      "constant": true
    },
    {
      "inputs": [
        {
          "internalType": "address",
          "name": "account",
          "type": "address"
        },
        {
          "internalType": "uint256",
          "name": "id",
          "type": "uint256"
        },
        {
          "internalType": "uint256",
          "name": "value",
          "type": "uint256"
        }
      ],
      "name": "burn",
      "outputs": [],
      "stateMutability": "nonpayable",
      "type": "function"
    },
    {
      "inputs": [
        {
          "internalType": "address",
          "name": "account",
          "type": "address"
        },
        {
          "internalType": "uint256[]",
          "name": "ids",
          "type": "uint256[]"
        },
        {
          "internalType": "uint256[]",
          "name": "values",
          "type": "uint256[]"
        }
      ],
      "name": "burnBatch",
      "outputs": [],
      "stateMutability": "nonpayable",
      "type": "function"
    },
    {
      "inputs": [
        {
          "internalType": "address",
          "name": "account",
          "type": "address"
        },
        {
          "internalType": "address",
          "name": "operator",
          "type": "address"
        }
      ],
      "name": "isApprovedForAll",
      "outputs": [
        {
          "internalType": "bool",
          "name": "",
          "type": "bool"
        }
      ],
      "stateMutability": "view",
      "type": "function",
      "constant": true
    },
    {
      "inputs": [],
      "name": "owner",
      "outputs": [
        {
          "internalType": "address",
          "name": "",
          "type": "address"
        }
      ],
      "stateMutability": "view",
      "type": "function",
      "constant": true
    },
    {
      "inputs": [],
      "name": "renounceOwnership",
      "outputs": [],
      "stateMutability": "nonpayable",
      "type": "function"
    },
    {
      "inputs": [
        {
          "internalType": "address",
          "name": "from",
          "type": "address"
        },
        {
          "internalType": "address",
          "name": "to",
          "type": "address"
        },
        {
          "internalType": "uint256[]",
          "name": "ids",
          "type": "uint256[]"
        },
        {
          "internalType": "uint256[]",
          "name": "amounts",
          "type": "uint256[]"
        },
        {
          "internalType": "bytes",
          "name": "data",
          "type": "bytes"
        }
      ],
      "name": "safeBatchTransferFrom",
      "outputs": [],
      "stateMutability": "nonpayable",
      "type": "function"
    },
    {
      "inputs": [
        {
          "internalType": "address",
          "name": "operator",
          "type": "address"
        },
        {
          "internalType": "bool",
          "name": "approved",
          "type": "bool"
        }
      ],
      "name": "setApprovalForAll",
      "outputs": [],
      "stateMutability": "nonpayable",
      "type": "function"
    },
    {
      "inputs": [
        {
          "internalType": "bytes4",
          "name": "interfaceId",
          "type": "bytes4"
        }
      ],
      "name": "supportsInterface",
      "outputs": [
        {
          "internalType": "bool",
          "name": "",
          "type": "bool"
        }
      ],
      "stateMutability": "view",
      "type": "function",
      "constant": true
    },
    {
      "inputs": [
        {
          "internalType": "address",
          "name": "newOwner",
          "type": "address"
        }
      ],
      "name": "transferOwnership",
      "outputs": [],
      "stateMutability": "nonpayable",
      "type": "function"
    },
    {
      "inputs": [
        {
          "internalType": "string",
          "name": "newuri",
          "type": "string"
        }
      ],
      "name": "setURI",
      "outputs": [],
      "stateMutability": "nonpayable",
      "type": "function"
    },
    {
      "inputs": [
        {
          "internalType": "address",
          "name": "account_address",
          "type": "address"
        },
        {
          "internalType": "uint256",
          "name": "id",
          "type": "uint256"
        }
      ],
      "name": "mint",
      "outputs": [],
      "stateMutability": "nonpayable",
      "type": "function"
    },
    {
      "inputs": [
        {
          "internalType": "address",
          "name": "to",
          "type": "address"
        },
        {
          "internalType": "uint256[]",
          "name": "ids",
          "type": "uint256[]"
        },
        {
          "internalType": "uint256[]",
          "name": "amounts",
          "type": "uint256[]"
        },
        {
          "internalType": "bytes",
          "name": "data",
          "type": "bytes"
        }
      ],
      "name": "mintBatch",
      "outputs": [],
      "stateMutability": "nonpayable",
      "type": "function"
    },
    {
      "inputs": [
        {
          "internalType": "address",
          "name": "from",
          "type": "address"
        },
        {
          "internalType": "address",
          "name": "to",
          "type": "address"
        },
        {
          "internalType": "uint256",
          "name": "id",
          "type": "uint256"
        },
        {
          "internalType": "uint256",
          "name": "amount",
          "type": "uint256"
        },
        {
          "internalType": "bytes",
          "name": "data",
          "type": "bytes"
        }
      ],
      "name": "safeTransferFrom",
      "outputs": [],
      "stateMutability": "nonpayable",
      "type": "function"
    },
    {
      "inputs": [
        {
          "internalType": "uint256",
          "name": "id",
          "type": "uint256"
        }
      ],
      "name": "unlock_payment",
      "outputs": [],
      "stateMutability": "payable",
      "type": "function",
      "payable": true
    },
    {
      "inputs": [
        {
          "internalType": "uint256",
          "name": "id",
          "type": "uint256"
        }
      ],
      "name": "uri",
      "outputs": [
        {
          "internalType": "string",
          "name": "",
          "type": "string"
        }
      ],
      "stateMutability": "view",
      "type": "function",
      "constant": true
    },
    {
      "inputs": [
        {
          "internalType": "uint256",
          "name": "id",
          "type": "uint256"
        },
        {
          "internalType": "uint256",
          "name": "feed_days",
          "type": "uint256"
        },
        {
          "internalType": "address",
          "name": "adopter",
          "type": "address"
        }
      ],
      "name": "feed",
      "outputs": [],
      "stateMutability": "nonpayable",
      "type": "function"
    },
    {
      "inputs": [
        {
          "internalType": "uint256",
          "name": "id",
          "type": "uint256"
        }
      ],
      "name": "get_adopt_time",
      "outputs": [
        {
          "internalType": "uint256",
          "name": "",
          "type": "uint256"
        }
      ],
      "stateMutability": "view",
      "type": "function",
      "constant": true
    },
    {
      "inputs": [
        {
          "internalType": "uint256",
          "name": "id",
          "type": "uint256"
        }
      ],
      "name": "get_health_point_percentage_or_burn",
      "outputs": [
        {
          "internalType": "uint256",
          "name": "health_digits18",
          "type": "uint256"
        }
      ],
      "stateMutability": "nonpayable",
      "type": "function"
    },
    {
      "inputs": [
        {
          "internalType": "uint256",
          "name": "id",
          "type": "uint256"
        }
      ],
      "name": "get_token_adopter",
      "outputs": [
        {
          "internalType": "address",
          "name": "adopter",
          "type": "address"
        }
      ],
      "stateMutability": "view",
      "type": "function",
      "constant": true
    },
    {
      "inputs": [
        {
          "internalType": "uint256",
          "name": "id",
          "type": "uint256"
        }
      ],
      "name": "get_token_lock_status",
      "outputs": [
        {
          "internalType": "bool",
          "name": "",
          "type": "bool"
        }
      ],
      "stateMutability": "view",
      "type": "function",
      "constant": true
    }
  ],
  "bytecode": "0x608060405266038d7ea4c680006004553480156200001c57600080fd5b506040518060800160405280605f815260200162004b44605f913962000048816200006f60201b60201c565b50620000696200005d6200008b60201b60201c565b6200009360201b60201c565b6200026d565b80600290805190602001906200008792919062000159565b5050565b600033905090565b6000600360009054906101000a900473ffffffffffffffffffffffffffffffffffffffff16905081600360006101000a81548173ffffffffffffffffffffffffffffffffffffffff021916908373ffffffffffffffffffffffffffffffffffffffff1602179055508173ffffffffffffffffffffffffffffffffffffffff168173ffffffffffffffffffffffffffffffffffffffff167f8be0079c531659141344cd1fd0a4f28419497f9722a3daafe3b4186f6b6457e060405160405180910390a35050565b828054620001679062000238565b90600052602060002090601f0160209004810192826200018b5760008555620001d7565b82601f10620001a657805160ff1916838001178555620001d7565b82800160010185558215620001d7579182015b82811115620001d6578251825591602001919060010190620001b9565b5b509050620001e69190620001ea565b5090565b5b8082111562000205576000816000905550600101620001eb565b5090565b7f4e487b7100000000000000000000000000000000000000000000000000000000600052602260045260246000fd5b600060028204905060018216806200025157607f821691505b60208210810362000267576200026662000209565b5b50919050565b6148c7806200027d6000396000f3fe6080604052600436106101345760003560e01c80636b20c454116100ab5780638da5cb5b1161006f5780638da5cb5b1461044a578063a22cb46514610475578063e985e9c51461049e578063f242432a146104db578063f2fde38b14610504578063f5298aca1461052d57610134565b80636b20c45414610367578063715018a61461039057806374d9f5f9146103a757806378b3bf54146103e457806384b147cb1461042157610134565b80632b71f94b116100fd5780632b71f94b146102425780632eb2c2d61461027f57806340c10f19146102a85780634e1273f4146102d1578063639031b11461030e57806368d1102b1461034b57610134565b8062fdd58e1461013957806301ffc9a71461017657806302fe5305146101b35780630e89341c146101dc5780631f7fdffa14610219575b600080fd5b34801561014557600080fd5b50610160600480360381019061015b9190612bdd565b610556565b60405161016d9190612c2c565b60405180910390f35b34801561018257600080fd5b5061019d60048036038101906101989190612c9f565b61061e565b6040516101aa9190612ce7565b60405180910390f35b3480156101bf57600080fd5b506101da60048036038101906101d59190612e48565b610700565b005b3480156101e857600080fd5b5061020360048036038101906101fe9190612e91565b610714565b6040516102109190612f46565b60405180910390f35b34801561022557600080fd5b50610240600480360381019061023b91906130d1565b6107ea565b005b34801561024e57600080fd5b5061026960048036038101906102649190612e91565b610804565b6040516102769190612c2c565b60405180910390f35b34801561028b57600080fd5b506102a660048036038101906102a1919061318c565b6108ac565b005b3480156102b457600080fd5b506102cf60048036038101906102ca9190612bdd565b61094d565b005b3480156102dd57600080fd5b506102f860048036038101906102f3919061331e565b610a98565b6040516103059190613454565b60405180910390f35b34801561031a57600080fd5b5061033560048036038101906103309190612e91565b610bb1565b6040516103429190612c2c565b60405180910390f35b61036560048036038101906103609190612e91565b610bd1565b005b34801561037357600080fd5b5061038e60048036038101906103899190613476565b610c81565b005b34801561039c57600080fd5b506103a5610d1e565b005b3480156103b357600080fd5b506103ce60048036038101906103c99190612e91565b610d32565b6040516103db9190613510565b60405180910390f35b3480156103f057600080fd5b5061040b60048036038101906104069190612e91565b610d72565b6040516104189190612ce7565b60405180910390f35b34801561042d57600080fd5b506104486004803603810190610443919061352b565b610d9f565b005b34801561045657600080fd5b5061045f610e96565b60405161046c9190613510565b60405180910390f35b34801561048157600080fd5b5061049c600480360381019061049791906135aa565b610ec0565b005b3480156104aa57600080fd5b506104c560048036038101906104c091906135ea565b610ed6565b6040516104d29190612ce7565b60405180910390f35b3480156104e757600080fd5b5061050260048036038101906104fd919061362a565b610f6a565b005b34801561051057600080fd5b5061052b600480360381019061052691906136c1565b611034565b005b34801561053957600080fd5b50610554600480360381019061054f91906136ee565b6110b7565b005b60008073ffffffffffffffffffffffffffffffffffffffff168373ffffffffffffffffffffffffffffffffffffffff16036105c6576040517f08c379a00000000000000000000000000000000000000000000000000000000081526004016105bd906137b3565b60405180910390fd5b60008083815260200190815260200160002060008473ffffffffffffffffffffffffffffffffffffffff1673ffffffffffffffffffffffffffffffffffffffff16815260200190815260200160002054905092915050565b60007fd9b67a26000000000000000000000000000000000000000000000000000000007bffffffffffffffffffffffffffffffffffffffffffffffffffffffff1916827bffffffffffffffffffffffffffffffffffffffffffffffffffffffff191614806106e957507f0e89341c000000000000000000000000000000000000000000000000000000007bffffffffffffffffffffffffffffffffffffffffffffffffffffffff1916827bffffffffffffffffffffffffffffffffffffffffffffffffffffffff1916145b806106f957506106f882611154565b5b9050919050565b6107086111be565b6107118161123c565b50565b6060600073ffffffffffffffffffffffffffffffffffffffff166005600084815260200190815260200160002060010160009054906101000a900473ffffffffffffffffffffffffffffffffffffffff1673ffffffffffffffffffffffffffffffffffffffff16036107bb576040517f08c379a00000000000000000000000000000000000000000000000000000000081526004016107b290613845565b60405180910390fd5b6107c482611256565b6040516020016107d49190613985565b6040516020818303038152906040529050919050565b6107f26111be565b6107fe84848484611324565b50505050565b600080600560008481526020019081526020016000206003015461084c61082a85610bb1565b4261083591906139e1565b624f1a0061084391906139e1565b624f1a00611550565b6108569190613a15565b9050600081116108a3576108a26005600085815260200190815260200160002060010160009054906101000a900473ffffffffffffffffffffffffffffffffffffffff16846001611589565b5b80915050919050565b6108b46117cf565b73ffffffffffffffffffffffffffffffffffffffff168573ffffffffffffffffffffffffffffffffffffffff1614806108fa57506108f9856108f46117cf565b610ed6565b5b610939576040517f08c379a000000000000000000000000000000000000000000000000000000000815260040161093090613add565b60405180910390fd5b61094685858585856117d7565b5050505050565b60006040518060c001604052808381526020018473ffffffffffffffffffffffffffffffffffffffff16815260200142815260200160008152602001600081526020016001151581525090506109db338360016040518060400160405280600381526020017f6361740000000000000000000000000000000000000000000000000000000000815250611af8565b80600560008481526020019081526020016000206000820151816000015560208201518160010160006101000a81548173ffffffffffffffffffffffffffffffffffffffff021916908373ffffffffffffffffffffffffffffffffffffffff16021790555060408201518160020155606082015181600301556080820151816004015560a08201518160050160006101000a81548160ff021916908315150217905550905050610a8a82610804565b816080018181525050505050565b60608151835114610ade576040517f08c379a0000000000000000000000000000000000000000000000000000000008152600401610ad590613b6f565b60405180910390fd5b6000835167ffffffffffffffff811115610afb57610afa612d1d565b5b604051908082528060200260200182016040528015610b295781602001602082028036833780820191505090505b50905060005b8451811015610ba657610b76858281518110610b4e57610b4d613b8f565b5b6020026020010151858381518110610b6957610b68613b8f565b5b6020026020010151610556565b828281518110610b8957610b88613b8f565b5b60200260200101818152505080610b9f90613bbe565b9050610b2f565b508091505092915050565b600060056000838152602001908152602001600020600201549050919050565b600454341015610c16576040517f08c379a0000000000000000000000000000000000000000000000000000000008152600401610c0d90613c52565b60405180910390fd5b7f59e04c3f0d44b7caf6e8ef854b61d9a51cf1960d7a88ff6356cc5e946b4b58323334604051610c47929190613cbe565b60405180910390a160006005600083815260200190815260200160002060050160006101000a81548160ff02191690831515021790555050565b610c896117cf565b73ffffffffffffffffffffffffffffffffffffffff168373ffffffffffffffffffffffffffffffffffffffff161480610ccf5750610cce83610cc96117cf565b610ed6565b5b610d0e576040517f08c379a0000000000000000000000000000000000000000000000000000000008152600401610d0590613add565b60405180910390fd5b610d19838383611ca8565b505050565b610d266111be565b610d306000611f76565b565b60006005600083815260200190815260200160002060010160009054906101000a900473ffffffffffffffffffffffffffffffffffffffff169050919050565b60006005600083815260200190815260200160002060050160009054906101000a900460ff169050919050565b6005600084815260200190815260200160002060010160009054906101000a900473ffffffffffffffffffffffffffffffffffffffff1673ffffffffffffffffffffffffffffffffffffffff168173ffffffffffffffffffffffffffffffffffffffff1614610e43576040517f08c379a0000000000000000000000000000000000000000000000000000000008152600401610e3a90613d6c565b60405180910390fd5b670de0b6b3a76400006201518083610e5b9190613d8c565b610e659190613d8c565b600560008581526020019081526020016000206003016000828254610e8a9190613a15565b92505081905550505050565b6000600360009054906101000a900473ffffffffffffffffffffffffffffffffffffffff16905090565b610ed2610ecb6117cf565b838361203c565b5050565b6000600160008473ffffffffffffffffffffffffffffffffffffffff1673ffffffffffffffffffffffffffffffffffffffff16815260200190815260200160002060008373ffffffffffffffffffffffffffffffffffffffff1673ffffffffffffffffffffffffffffffffffffffff16815260200190815260200160002060009054906101000a900460ff16905092915050565b6001610f768685610556565b14610fb6576040517f08c379a0000000000000000000000000000000000000000000000000000000008152600401610fad90613e58565b60405180910390fd5b600015156005600085815260200190815260200160002060050160009054906101000a900460ff16151514611020576040517f08c379a000000000000000000000000000000000000000000000000000000000815260040161101790613eea565b60405180910390fd5b61102d85858585856121a8565b5050505050565b61103c6111be565b600073ffffffffffffffffffffffffffffffffffffffff168173ffffffffffffffffffffffffffffffffffffffff16036110ab576040517f08c379a00000000000000000000000000000000000000000000000000000000081526004016110a290613f7c565b60405180910390fd5b6110b481611f76565b50565b6110bf6117cf565b73ffffffffffffffffffffffffffffffffffffffff168373ffffffffffffffffffffffffffffffffffffffff1614806111055750611104836110ff6117cf565b610ed6565b5b611144576040517f08c379a000000000000000000000000000000000000000000000000000000000815260040161113b90613add565b60405180910390fd5b61114f838383611589565b505050565b60007f01ffc9a7000000000000000000000000000000000000000000000000000000007bffffffffffffffffffffffffffffffffffffffffffffffffffffffff1916827bffffffffffffffffffffffffffffffffffffffffffffffffffffffff1916149050919050565b6111c66117cf565b73ffffffffffffffffffffffffffffffffffffffff166111e4610e96565b73ffffffffffffffffffffffffffffffffffffffff161461123a576040517f08c379a000000000000000000000000000000000000000000000000000000000815260040161123190613fe8565b60405180910390fd5b565b8060029080519060200190611252929190612a92565b5050565b60606000600161126584612249565b01905060008167ffffffffffffffff81111561128457611283612d1d565b5b6040519080825280601f01601f1916602001820160405280156112b65781602001600182028036833780820191505090505b509050600082602001820190505b600115611319578080600190039150507f3031323334353637383961626364656600000000000000000000000000000000600a86061a8153600a858161130d5761130c614008565b5b049450600085036112c4575b819350505050919050565b600073ffffffffffffffffffffffffffffffffffffffff168473ffffffffffffffffffffffffffffffffffffffff1603611393576040517f08c379a000000000000000000000000000000000000000000000000000000000815260040161138a906140a9565b60405180910390fd5b81518351146113d7576040517f08c379a00000000000000000000000000000000000000000000000000000000081526004016113ce9061413b565b60405180910390fd5b60006113e16117cf565b90506113f28160008787878761239c565b60005b84518110156114ab5783818151811061141157611410613b8f565b5b602002602001015160008087848151811061142f5761142e613b8f565b5b6020026020010151815260200190815260200160002060008873ffffffffffffffffffffffffffffffffffffffff1673ffffffffffffffffffffffffffffffffffffffff16815260200190815260200160002060008282546114919190613a15565b9250508190555080806114a390613bbe565b9150506113f5565b508473ffffffffffffffffffffffffffffffffffffffff16600073ffffffffffffffffffffffffffffffffffffffff168273ffffffffffffffffffffffffffffffffffffffff167f4a39dc06d4c0dbc64b70af90fd698a233a518aa5d07e595d983b8c0526c8f7fb878760405161152392919061415b565b60405180910390a461153a816000878787876123a4565b611549816000878787876123ac565b5050505050565b600080820361156257611561614192565b5b81670de0b6b3a7640000846115779190613d8c565b61158191906141c1565b905092915050565b600073ffffffffffffffffffffffffffffffffffffffff168373ffffffffffffffffffffffffffffffffffffffff16036115f8576040517f08c379a00000000000000000000000000000000000000000000000000000000081526004016115ef90614264565b60405180910390fd5b60006116026117cf565b9050600061160f84612583565b9050600061161c84612583565b905061163c8387600085856040518060200160405280600081525061239c565b600080600087815260200190815260200160002060008873ffffffffffffffffffffffffffffffffffffffff1673ffffffffffffffffffffffffffffffffffffffff168152602001908152602001600020549050848110156116d3576040517f08c379a00000000000000000000000000000000000000000000000000000000081526004016116ca906142f6565b60405180910390fd5b84810360008088815260200190815260200160002060008973ffffffffffffffffffffffffffffffffffffffff1673ffffffffffffffffffffffffffffffffffffffff16815260200190815260200160002081905550600073ffffffffffffffffffffffffffffffffffffffff168773ffffffffffffffffffffffffffffffffffffffff168573ffffffffffffffffffffffffffffffffffffffff167fc3d58168c5ae7397731d063d5bbf3d657854427343f4c083240f7aacaa2d0f6289896040516117a0929190614316565b60405180910390a46117c6848860008686604051806020016040528060008152506123a4565b50505050505050565b600033905090565b815183511461181b576040517f08c379a00000000000000000000000000000000000000000000000000000000081526004016118129061413b565b60405180910390fd5b600073ffffffffffffffffffffffffffffffffffffffff168473ffffffffffffffffffffffffffffffffffffffff160361188a576040517f08c379a0000000000000000000000000000000000000000000000000000000008152600401611881906143b1565b60405180910390fd5b60006118946117cf565b90506118a481878787878761239c565b60005b8451811015611a555760008582815181106118c5576118c4613b8f565b5b6020026020010151905060008583815181106118e4576118e3613b8f565b5b60200260200101519050600080600084815260200190815260200160002060008b73ffffffffffffffffffffffffffffffffffffffff1673ffffffffffffffffffffffffffffffffffffffff16815260200190815260200160002054905081811015611985576040517f08c379a000000000000000000000000000000000000000000000000000000000815260040161197c90614443565b60405180910390fd5b81810360008085815260200190815260200160002060008c73ffffffffffffffffffffffffffffffffffffffff1673ffffffffffffffffffffffffffffffffffffffff168152602001908152602001600020819055508160008085815260200190815260200160002060008b73ffffffffffffffffffffffffffffffffffffffff1673ffffffffffffffffffffffffffffffffffffffff1681526020019081526020016000206000828254611a3a9190613a15565b9250508190555050505080611a4e90613bbe565b90506118a7565b508473ffffffffffffffffffffffffffffffffffffffff168673ffffffffffffffffffffffffffffffffffffffff168273ffffffffffffffffffffffffffffffffffffffff167f4a39dc06d4c0dbc64b70af90fd698a233a518aa5d07e595d983b8c0526c8f7fb8787604051611acc92919061415b565b60405180910390a4611ae28187878787876123a4565b611af08187878787876123ac565b505050505050565b600073ffffffffffffffffffffffffffffffffffffffff168473ffffffffffffffffffffffffffffffffffffffff1603611b67576040517f08c379a0000000000000000000000000000000000000000000000000000000008152600401611b5e906140a9565b60405180910390fd5b6000611b716117cf565b90506000611b7e85612583565b90506000611b8b85612583565b9050611b9c8360008985858961239c565b8460008088815260200190815260200160002060008973ffffffffffffffffffffffffffffffffffffffff1673ffffffffffffffffffffffffffffffffffffffff1681526020019081526020016000206000828254611bfb9190613a15565b925050819055508673ffffffffffffffffffffffffffffffffffffffff16600073ffffffffffffffffffffffffffffffffffffffff168473ffffffffffffffffffffffffffffffffffffffff167fc3d58168c5ae7397731d063d5bbf3d657854427343f4c083240f7aacaa2d0f628989604051611c79929190614316565b60405180910390a4611c90836000898585896123a4565b611c9f836000898989896125fd565b50505050505050565b600073ffffffffffffffffffffffffffffffffffffffff168373ffffffffffffffffffffffffffffffffffffffff1603611d17576040517f08c379a0000000000000000000000000000000000000000000000000000000008152600401611d0e90614264565b60405180910390fd5b8051825114611d5b576040517f08c379a0000000000000000000000000000000000000000000000000000000008152600401611d529061413b565b60405180910390fd5b6000611d656117cf565b9050611d858185600086866040518060200160405280600081525061239c565b60005b8351811015611ed2576000848281518110611da657611da5613b8f565b5b602002602001015190506000848381518110611dc557611dc4613b8f565b5b60200260200101519050600080600084815260200190815260200160002060008973ffffffffffffffffffffffffffffffffffffffff1673ffffffffffffffffffffffffffffffffffffffff16815260200190815260200160002054905081811015611e66576040517f08c379a0000000000000000000000000000000000000000000000000000000008152600401611e5d906142f6565b60405180910390fd5b81810360008085815260200190815260200160002060008a73ffffffffffffffffffffffffffffffffffffffff1673ffffffffffffffffffffffffffffffffffffffff168152602001908152602001600020819055505050508080611eca90613bbe565b915050611d88565b50600073ffffffffffffffffffffffffffffffffffffffff168473ffffffffffffffffffffffffffffffffffffffff168273ffffffffffffffffffffffffffffffffffffffff167f4a39dc06d4c0dbc64b70af90fd698a233a518aa5d07e595d983b8c0526c8f7fb8686604051611f4a92919061415b565b60405180910390a4611f70818560008686604051806020016040528060008152506123a4565b50505050565b6000600360009054906101000a900473ffffffffffffffffffffffffffffffffffffffff16905081600360006101000a81548173ffffffffffffffffffffffffffffffffffffffff021916908373ffffffffffffffffffffffffffffffffffffffff1602179055508173ffffffffffffffffffffffffffffffffffffffff168173ffffffffffffffffffffffffffffffffffffffff167f8be0079c531659141344cd1fd0a4f28419497f9722a3daafe3b4186f6b6457e060405160405180910390a35050565b8173ffffffffffffffffffffffffffffffffffffffff168373ffffffffffffffffffffffffffffffffffffffff16036120aa576040517f08c379a00000000000000000000000000000000000000000000000000000000081526004016120a1906144d5565b60405180910390fd5b80600160008573ffffffffffffffffffffffffffffffffffffffff1673ffffffffffffffffffffffffffffffffffffffff16815260200190815260200160002060008473ffffffffffffffffffffffffffffffffffffffff1673ffffffffffffffffffffffffffffffffffffffff16815260200190815260200160002060006101000a81548160ff0219169083151502179055508173ffffffffffffffffffffffffffffffffffffffff168373ffffffffffffffffffffffffffffffffffffffff167f17307eab39ab6107e8899845ad3d59bd9653f200f220920489ca2b5937696c318360405161219b9190612ce7565b60405180910390a3505050565b6121b06117cf565b73ffffffffffffffffffffffffffffffffffffffff168573ffffffffffffffffffffffffffffffffffffffff1614806121f657506121f5856121f06117cf565b610ed6565b5b612235576040517f08c379a000000000000000000000000000000000000000000000000000000000815260040161222c90613add565b60405180910390fd5b61224285858585856127d4565b5050505050565b600080600090507a184f03e93ff9f4daa797ed6e38ed64bf6a1f01000000000000000083106122a7577a184f03e93ff9f4daa797ed6e38ed64bf6a1f010000000000000000838161229d5761229c614008565b5b0492506040810190505b6d04ee2d6d415b85acef810000000083106122e4576d04ee2d6d415b85acef810000000083816122da576122d9614008565b5b0492506020810190505b662386f26fc10000831061231357662386f26fc10000838161230957612308614008565b5b0492506010810190505b6305f5e100831061233c576305f5e100838161233257612331614008565b5b0492506008810190505b612710831061236157612710838161235757612356614008565b5b0492506004810190505b60648310612384576064838161237a57612379614008565b5b0492506002810190505b600a8310612393576001810190505b80915050919050565b505050505050565b505050505050565b6123cb8473ffffffffffffffffffffffffffffffffffffffff16612a6f565b1561257b578373ffffffffffffffffffffffffffffffffffffffff1663bc197c8187878686866040518663ffffffff1660e01b815260040161241195949392919061454a565b6020604051808303816000875af192505050801561244d57506040513d601f19601f8201168201806040525081019061244a91906145c7565b60015b6124f257612459614601565b806308c379a0036124b5575061246d614623565b8061247857506124b7565b806040517f08c379a00000000000000000000000000000000000000000000000000000000081526004016124ac9190612f46565b60405180910390fd5b505b6040517f08c379a00000000000000000000000000000000000000000000000000000000081526004016124e990614725565b60405180910390fd5b63bc197c8160e01b7bffffffffffffffffffffffffffffffffffffffffffffffffffffffff1916817bffffffffffffffffffffffffffffffffffffffffffffffffffffffff191614612579576040517f08c379a0000000000000000000000000000000000000000000000000000000008152600401612570906147b7565b60405180910390fd5b505b505050505050565b60606000600167ffffffffffffffff8111156125a2576125a1612d1d565b5b6040519080825280602002602001820160405280156125d05781602001602082028036833780820191505090505b50905082816000815181106125e8576125e7613b8f565b5b60200260200101818152505080915050919050565b61261c8473ffffffffffffffffffffffffffffffffffffffff16612a6f565b156127cc578373ffffffffffffffffffffffffffffffffffffffff1663f23a6e6187878686866040518663ffffffff1660e01b81526004016126629594939291906147d7565b6020604051808303816000875af192505050801561269e57506040513d601f19601f8201168201806040525081019061269b91906145c7565b60015b612743576126aa614601565b806308c379a00361270657506126be614623565b806126c95750612708565b806040517f08c379a00000000000000000000000000000000000000000000000000000000081526004016126fd9190612f46565b60405180910390fd5b505b6040517f08c379a000000000000000000000000000000000000000000000000000000000815260040161273a90614725565b60405180910390fd5b63f23a6e6160e01b7bffffffffffffffffffffffffffffffffffffffffffffffffffffffff1916817bffffffffffffffffffffffffffffffffffffffffffffffffffffffff1916146127ca576040517f08c379a00000000000000000000000000000000000000000000000000000000081526004016127c1906147b7565b60405180910390fd5b505b505050505050565b600073ffffffffffffffffffffffffffffffffffffffff168473ffffffffffffffffffffffffffffffffffffffff1603612843576040517f08c379a000000000000000000000000000000000000000000000000000000000815260040161283a906143b1565b60405180910390fd5b600061284d6117cf565b9050600061285a85612583565b9050600061286785612583565b905061287783898985858961239c565b600080600088815260200190815260200160002060008a73ffffffffffffffffffffffffffffffffffffffff1673ffffffffffffffffffffffffffffffffffffffff1681526020019081526020016000205490508581101561290e576040517f08c379a000000000000000000000000000000000000000000000000000000000815260040161290590614443565b60405180910390fd5b85810360008089815260200190815260200160002060008b73ffffffffffffffffffffffffffffffffffffffff1673ffffffffffffffffffffffffffffffffffffffff168152602001908152602001600020819055508560008089815260200190815260200160002060008a73ffffffffffffffffffffffffffffffffffffffff1673ffffffffffffffffffffffffffffffffffffffff16815260200190815260200160002060008282546129c39190613a15565b925050819055508773ffffffffffffffffffffffffffffffffffffffff168973ffffffffffffffffffffffffffffffffffffffff168573ffffffffffffffffffffffffffffffffffffffff167fc3d58168c5ae7397731d063d5bbf3d657854427343f4c083240f7aacaa2d0f628a8a604051612a40929190614316565b60405180910390a4612a56848a8a86868a6123a4565b612a64848a8a8a8a8a6125fd565b505050505050505050565b6000808273ffffffffffffffffffffffffffffffffffffffff163b119050919050565b828054612a9e90614860565b90600052602060002090601f016020900481019282612ac05760008555612b07565b82601f10612ad957805160ff1916838001178555612b07565b82800160010185558215612b07579182015b82811115612b06578251825591602001919060010190612aeb565b5b509050612b149190612b18565b5090565b5b80821115612b31576000816000905550600101612b19565b5090565b6000604051905090565b600080fd5b600080fd5b600073ffffffffffffffffffffffffffffffffffffffff82169050919050565b6000612b7482612b49565b9050919050565b612b8481612b69565b8114612b8f57600080fd5b50565b600081359050612ba181612b7b565b92915050565b6000819050919050565b612bba81612ba7565b8114612bc557600080fd5b50565b600081359050612bd781612bb1565b92915050565b60008060408385031215612bf457612bf3612b3f565b5b6000612c0285828601612b92565b9250506020612c1385828601612bc8565b9150509250929050565b612c2681612ba7565b82525050565b6000602082019050612c416000830184612c1d565b92915050565b60007fffffffff0000000000000000000000000000000000000000000000000000000082169050919050565b612c7c81612c47565b8114612c8757600080fd5b50565b600081359050612c9981612c73565b92915050565b600060208284031215612cb557612cb4612b3f565b5b6000612cc384828501612c8a565b91505092915050565b60008115159050919050565b612ce181612ccc565b82525050565b6000602082019050612cfc6000830184612cd8565b92915050565b600080fd5b600080fd5b6000601f19601f8301169050919050565b7f4e487b7100000000000000000000000000000000000000000000000000000000600052604160045260246000fd5b612d5582612d0c565b810181811067ffffffffffffffff82111715612d7457612d73612d1d565b5b80604052505050565b6000612d87612b35565b9050612d938282612d4c565b919050565b600067ffffffffffffffff821115612db357612db2612d1d565b5b612dbc82612d0c565b9050602081019050919050565b82818337600083830152505050565b6000612deb612de684612d98565b612d7d565b905082815260208101848484011115612e0757612e06612d07565b5b612e12848285612dc9565b509392505050565b600082601f830112612e2f57612e2e612d02565b5b8135612e3f848260208601612dd8565b91505092915050565b600060208284031215612e5e57612e5d612b3f565b5b600082013567ffffffffffffffff811115612e7c57612e7b612b44565b5b612e8884828501612e1a565b91505092915050565b600060208284031215612ea757612ea6612b3f565b5b6000612eb584828501612bc8565b91505092915050565b600081519050919050565b600082825260208201905092915050565b60005b83811015612ef8578082015181840152602081019050612edd565b83811115612f07576000848401525b50505050565b6000612f1882612ebe565b612f228185612ec9565b9350612f32818560208601612eda565b612f3b81612d0c565b840191505092915050565b60006020820190508181036000830152612f608184612f0d565b905092915050565b600067ffffffffffffffff821115612f8357612f82612d1d565b5b602082029050602081019050919050565b600080fd5b6000612fac612fa784612f68565b612d7d565b90508083825260208201905060208402830185811115612fcf57612fce612f94565b5b835b81811015612ff85780612fe48882612bc8565b845260208401935050602081019050612fd1565b5050509392505050565b600082601f83011261301757613016612d02565b5b8135613027848260208601612f99565b91505092915050565b600067ffffffffffffffff82111561304b5761304a612d1d565b5b61305482612d0c565b9050602081019050919050565b600061307461306f84613030565b612d7d565b9050828152602081018484840111156130905761308f612d07565b5b61309b848285612dc9565b509392505050565b600082601f8301126130b8576130b7612d02565b5b81356130c8848260208601613061565b91505092915050565b600080600080608085870312156130eb576130ea612b3f565b5b60006130f987828801612b92565b945050602085013567ffffffffffffffff81111561311a57613119612b44565b5b61312687828801613002565b935050604085013567ffffffffffffffff81111561314757613146612b44565b5b61315387828801613002565b925050606085013567ffffffffffffffff81111561317457613173612b44565b5b613180878288016130a3565b91505092959194509250565b600080600080600060a086880312156131a8576131a7612b3f565b5b60006131b688828901612b92565b95505060206131c788828901612b92565b945050604086013567ffffffffffffffff8111156131e8576131e7612b44565b5b6131f488828901613002565b935050606086013567ffffffffffffffff81111561321557613214612b44565b5b61322188828901613002565b925050608086013567ffffffffffffffff81111561324257613241612b44565b5b61324e888289016130a3565b9150509295509295909350565b600067ffffffffffffffff82111561327657613275612d1d565b5b602082029050602081019050919050565b600061329a6132958461325b565b612d7d565b905080838252602082019050602084028301858111156132bd576132bc612f94565b5b835b818110156132e657806132d28882612b92565b8452602084019350506020810190506132bf565b5050509392505050565b600082601f83011261330557613304612d02565b5b8135613315848260208601613287565b91505092915050565b6000806040838503121561333557613334612b3f565b5b600083013567ffffffffffffffff81111561335357613352612b44565b5b61335f858286016132f0565b925050602083013567ffffffffffffffff8111156133805761337f612b44565b5b61338c85828601613002565b9150509250929050565b600081519050919050565b600082825260208201905092915050565b6000819050602082019050919050565b6133cb81612ba7565b82525050565b60006133dd83836133c2565b60208301905092915050565b6000602082019050919050565b600061340182613396565b61340b81856133a1565b9350613416836133b2565b8060005b8381101561344757815161342e88826133d1565b9750613439836133e9565b92505060018101905061341a565b5085935050505092915050565b6000602082019050818103600083015261346e81846133f6565b905092915050565b60008060006060848603121561348f5761348e612b3f565b5b600061349d86828701612b92565b935050602084013567ffffffffffffffff8111156134be576134bd612b44565b5b6134ca86828701613002565b925050604084013567ffffffffffffffff8111156134eb576134ea612b44565b5b6134f786828701613002565b9150509250925092565b61350a81612b69565b82525050565b60006020820190506135256000830184613501565b92915050565b60008060006060848603121561354457613543612b3f565b5b600061355286828701612bc8565b935050602061356386828701612bc8565b925050604061357486828701612b92565b9150509250925092565b61358781612ccc565b811461359257600080fd5b50565b6000813590506135a48161357e565b92915050565b600080604083850312156135c1576135c0612b3f565b5b60006135cf85828601612b92565b92505060206135e085828601613595565b9150509250929050565b6000806040838503121561360157613600612b3f565b5b600061360f85828601612b92565b925050602061362085828601612b92565b9150509250929050565b600080600080600060a0868803121561364657613645612b3f565b5b600061365488828901612b92565b955050602061366588828901612b92565b945050604061367688828901612bc8565b935050606061368788828901612bc8565b925050608086013567ffffffffffffffff8111156136a8576136a7612b44565b5b6136b4888289016130a3565b9150509295509295909350565b6000602082840312156136d7576136d6612b3f565b5b60006136e584828501612b92565b91505092915050565b60008060006060848603121561370757613706612b3f565b5b600061371586828701612b92565b935050602061372686828701612bc8565b925050604061373786828701612bc8565b9150509250925092565b7f455243313135353a2061646472657373207a65726f206973206e6f742061207660008201527f616c6964206f776e657200000000000000000000000000000000000000000000602082015250565b600061379d602a83612ec9565b91506137a882613741565b604082019050919050565b600060208201905081810360008301526137cc81613790565b9050919050565b7f546865207265717569726564204944206973206e6f74207468697320636f6e7460008201527f72616374206f776e65642e000000000000000000000000000000000000000000602082015250565b600061382f602b83612ec9565b915061383a826137d3565b604082019050919050565b6000602082019050818103600083015261385e81613822565b9050919050565b600081905092915050565b7f68747470733a2f2f697066732e696f2f697066732f62616679626569626b727460008201527f74746a326d746a6d75777532366c37646c626d7674356b35716761683771786d60208201527f686f6276337073356a323332747a64792f73746f6e6500000000000000000000604082015250565b60006138f2605683613865565b91506138fd82613870565b605682019050919050565b600061391382612ebe565b61391d8185613865565b935061392d818560208601612eda565b80840191505092915050565b7f2e6a736f6e000000000000000000000000000000000000000000000000000000600082015250565b600061396f600583613865565b915061397a82613939565b600582019050919050565b6000613990826138e5565b915061399c8284613908565b91506139a782613962565b915081905092915050565b7f4e487b7100000000000000000000000000000000000000000000000000000000600052601160045260246000fd5b60006139ec82612ba7565b91506139f783612ba7565b925082821015613a0a57613a096139b2565b5b828203905092915050565b6000613a2082612ba7565b9150613a2b83612ba7565b9250827fffffffffffffffffffffffffffffffffffffffffffffffffffffffffffffffff03821115613a6057613a5f6139b2565b5b828201905092915050565b7f455243313135353a2063616c6c6572206973206e6f7420746f6b656e206f776e60008201527f6572206f7220617070726f766564000000000000000000000000000000000000602082015250565b6000613ac7602e83612ec9565b9150613ad282613a6b565b604082019050919050565b60006020820190508181036000830152613af681613aba565b9050919050565b7f455243313135353a206163636f756e747320616e6420696473206c656e67746860008201527f206d69736d617463680000000000000000000000000000000000000000000000602082015250565b6000613b59602983612ec9565b9150613b6482613afd565b604082019050919050565b60006020820190508181036000830152613b8881613b4c565b9050919050565b7f4e487b7100000000000000000000000000000000000000000000000000000000600052603260045260246000fd5b6000613bc982612ba7565b91507fffffffffffffffffffffffffffffffffffffffffffffffffffffffffffffffff8203613bfb57613bfa6139b2565b5b600182019050919050565b7f496e73756666696369656e74206269642e000000000000000000000000000000600082015250565b6000613c3c601183612ec9565b9150613c4782613c06565b602082019050919050565b60006020820190508181036000830152613c6b81613c2f565b9050919050565b7f746865206c6f636b206973207570646174650000000000000000000000000000600082015250565b6000613ca8601283612ec9565b9150613cb382613c72565b602082019050919050565b6000606082019050613cd36000830185613501565b613ce06020830184612c1d565b8181036040830152613cf181613c9b565b90509392505050565b7f54686520666565646572206973206e6f742061646f707465722c20796f75722060008201527f73746f6e652067657420616e6772792e00000000000000000000000000000000602082015250565b6000613d56603083612ec9565b9150613d6182613cfa565b604082019050919050565b60006020820190508181036000830152613d8581613d49565b9050919050565b6000613d9782612ba7565b9150613da283612ba7565b9250817fffffffffffffffffffffffffffffffffffffffffffffffffffffffffffffffff0483118215151615613ddb57613dda6139b2565b5b828202905092915050565b7f496e73756666696369656e742062616c616e636520666f7220746f6b656e204960008201527f4400000000000000000000000000000000000000000000000000000000000000602082015250565b6000613e42602183612ec9565b9150613e4d82613de6565b604082019050919050565b60006020820190508181036000830152613e7181613e35565b9050919050565b7f546865207472616e73616374696f6e20706179207374696c6c206e6f7420646f60008201527f6e65207965742e00000000000000000000000000000000000000000000000000602082015250565b6000613ed4602783612ec9565b9150613edf82613e78565b604082019050919050565b60006020820190508181036000830152613f0381613ec7565b9050919050565b7f4f776e61626c653a206e6577206f776e657220697320746865207a65726f206160008201527f6464726573730000000000000000000000000000000000000000000000000000602082015250565b6000613f66602683612ec9565b9150613f7182613f0a565b604082019050919050565b60006020820190508181036000830152613f9581613f59565b9050919050565b7f4f776e61626c653a2063616c6c6572206973206e6f7420746865206f776e6572600082015250565b6000613fd2602083612ec9565b9150613fdd82613f9c565b602082019050919050565b6000602082019050818103600083015261400181613fc5565b9050919050565b7f4e487b7100000000000000000000000000000000000000000000000000000000600052601260045260246000fd5b7f455243313135353a206d696e7420746f20746865207a65726f2061646472657360008201527f7300000000000000000000000000000000000000000000000000000000000000602082015250565b6000614093602183612ec9565b915061409e82614037565b604082019050919050565b600060208201905081810360008301526140c281614086565b9050919050565b7f455243313135353a2069647320616e6420616d6f756e7473206c656e6774682060008201527f6d69736d61746368000000000000000000000000000000000000000000000000602082015250565b6000614125602883612ec9565b9150614130826140c9565b604082019050919050565b6000602082019050818103600083015261415481614118565b9050919050565b6000604082019050818103600083015261417581856133f6565b9050818103602083015261418981846133f6565b90509392505050565b7f4e487b7100000000000000000000000000000000000000000000000000000000600052600160045260246000fd5b60006141cc82612ba7565b91506141d783612ba7565b9250826141e7576141e6614008565b5b828204905092915050565b7f455243313135353a206275726e2066726f6d20746865207a65726f206164647260008201527f6573730000000000000000000000000000000000000000000000000000000000602082015250565b600061424e602383612ec9565b9150614259826141f2565b604082019050919050565b6000602082019050818103600083015261427d81614241565b9050919050565b7f455243313135353a206275726e20616d6f756e7420657863656564732062616c60008201527f616e636500000000000000000000000000000000000000000000000000000000602082015250565b60006142e0602483612ec9565b91506142eb82614284565b604082019050919050565b6000602082019050818103600083015261430f816142d3565b9050919050565b600060408201905061432b6000830185612c1d565b6143386020830184612c1d565b9392505050565b7f455243313135353a207472616e7366657220746f20746865207a65726f20616460008201527f6472657373000000000000000000000000000000000000000000000000000000602082015250565b600061439b602583612ec9565b91506143a68261433f565b604082019050919050565b600060208201905081810360008301526143ca8161438e565b9050919050565b7f455243313135353a20696e73756666696369656e742062616c616e636520666f60008201527f72207472616e7366657200000000000000000000000000000000000000000000602082015250565b600061442d602a83612ec9565b9150614438826143d1565b604082019050919050565b6000602082019050818103600083015261445c81614420565b9050919050565b7f455243313135353a2073657474696e6720617070726f76616c2073746174757360008201527f20666f722073656c660000000000000000000000000000000000000000000000602082015250565b60006144bf602983612ec9565b91506144ca82614463565b604082019050919050565b600060208201905081810360008301526144ee816144b2565b9050919050565b600081519050919050565b600082825260208201905092915050565b600061451c826144f5565b6145268185614500565b9350614536818560208601612eda565b61453f81612d0c565b840191505092915050565b600060a08201905061455f6000830188613501565b61456c6020830187613501565b818103604083015261457e81866133f6565b9050818103606083015261459281856133f6565b905081810360808301526145a68184614511565b90509695505050505050565b6000815190506145c181612c73565b92915050565b6000602082840312156145dd576145dc612b3f565b5b60006145eb848285016145b2565b91505092915050565b60008160e01c9050919050565b600060033d11156146205760046000803e61461d6000516145f4565b90505b90565b600060443d106146b057614635612b35565b60043d036004823e80513d602482011167ffffffffffffffff8211171561465d5750506146b0565b808201805167ffffffffffffffff81111561467b57505050506146b0565b80602083010160043d0385018111156146985750505050506146b0565b6146a782602001850186612d4c565b82955050505050505b90565b7f455243313135353a207472616e7366657220746f206e6f6e2d4552433131353560008201527f526563656976657220696d706c656d656e746572000000000000000000000000602082015250565b600061470f603483612ec9565b915061471a826146b3565b604082019050919050565b6000602082019050818103600083015261473e81614702565b9050919050565b7f455243313135353a204552433131353552656365697665722072656a6563746560008201527f6420746f6b656e73000000000000000000000000000000000000000000000000602082015250565b60006147a1602883612ec9565b91506147ac82614745565b604082019050919050565b600060208201905081810360008301526147d081614794565b9050919050565b600060a0820190506147ec6000830188613501565b6147f96020830187613501565b6148066040830186612c1d565b6148136060830185612c1d565b81810360808301526148258184614511565b90509695505050505050565b7f4e487b7100000000000000000000000000000000000000000000000000000000600052602260045260246000fd5b6000600282049050600182168061487857607f821691505b60208210810361488b5761488a614831565b5b5091905056fea26469706673582212204b37f4fc24fe89828f295f064ddd7ae70be0af668adfa1c9c7dc1311813720a764736f6c634300080d003368747470733a2f2f697066732e696f2f697066732f62616679626569626b727474746a326d746a6d75777532366c37646c626d7674356b35716761683771786d686f6276337073356a323332747a64792f73746f6e657b69647d2e6a736f6e",
  "immutableReferences": {},
  "source": "// SPDX-License-Identifier: MIT\r\npragma solidity ^0.8.9;\r\n\r\nimport \"@openzeppelin/contracts/token/ERC1155/ERC1155.sol\";\r\nimport \"@openzeppelin/contracts/access/Ownable.sol\";\r\nimport \"@openzeppelin/contracts/token/ERC1155/extensions/ERC1155Burnable.sol\";\r\nimport \"@openzeppelin/contracts/token/ERC1155/extensions/ERC1155Supply.sol\";\r\nimport \"@openzeppelin/contracts/utils/Strings.sol\";\r\n\r\ncontract MyToken is ERC1155, Ownable, ERC1155Burnable{\r\n    struct Cat{\r\n        uint id;\r\n        address adopter_address;\r\n        uint adopt_date_timestamp;\r\n        uint256 feed;\r\n        uint256 healthPointPercentage_18digits;\r\n        bool lock_status; //true is locked, otherwise it free\r\n    }\r\n\r\n    uint256 transactionfee = 0.001 ether;\r\n    mapping (uint256 => Cat) private tokenMutableData; //id:cat\r\n    event Received(address _sender, uint _value, string _message);\r\n\r\n    constructor() ERC1155(\"https://ipfs.io/ipfs/bafybeibkrtttj2mtjmuwu26l7dlbmvt5k5qgah7qxmhobv3ps5j232tzdy/stone{id}.json\") {\r\n\r\n    }\r\n\r\n    function setURI(string memory newuri) public onlyOwner {\r\n        _setURI(newuri);\r\n    }\r\n\r\n    function mint(address account_address, uint256 id)\r\n        public\r\n    { \r\n        Cat memory newcat = Cat(id, account_address, block.timestamp, 0, 0, true);\r\n        _mint(msg.sender, id, 1, \"cat\");\r\n        tokenMutableData[id] = newcat;\r\n        newcat.healthPointPercentage_18digits = get_health_point_percentage_or_burn(id);\r\n    }\r\n\r\n    function mintBatch(address to, uint256[] memory ids, uint256[] memory amounts, bytes memory data)\r\n        public\r\n        onlyOwner\r\n    {\r\n        _mintBatch(to, ids, amounts, data);\r\n    }\r\n\r\n    // The following functions are overrides required by Solidity.\r\n            \r\n    function safeTransferFrom(\r\n        address from,\r\n        address to,\r\n        uint256 id,\r\n        uint256 amount,\r\n        bytes memory data\r\n    ) public virtual override{\r\n        require(balanceOf(from, id) == 1, \"Insufficient balance for token ID\");\r\n        require(tokenMutableData[id].lock_status == false, \"The transaction pay still not done yet.\");\r\n        super.safeTransferFrom(from, to, id, amount, data);\r\n    }\r\n    \r\n    function check_batch_lock (uint[] memory ids, bool status) private view returns(bool){\r\n\r\n        for(uint256 i = 0 ; i < ids.length ; i++){\r\n            require(tokenMutableData[ids[i]].lock_status == status,\"your NFT status isn't correct.\");\r\n        }\r\n        return true;\r\n    }\r\n\r\n    function set_batch_lock (uint[] memory ids, bool lock_status) private{\r\n        for(uint256 i = 0 ; i < ids.length ; i++){\r\n            tokenMutableData[ids[i]].lock_status = lock_status;\r\n        }\r\n    }\r\n\r\n    function unlock_payment(uint id) public payable{\r\n        require(msg.value >= transactionfee, \"Insufficient bid.\");\r\n        emit Received(msg.sender, msg.value,\"the lock is update\");\r\n        tokenMutableData[id].lock_status = false;\r\n    }\r\n\r\n    /*\r\n    //expected it doesn't work porperly.\r\n    function unlock_transfer( address from,\r\n        address to,\r\n        uint256 id,\r\n        uint256 amount,\r\n        bytes memory data)\r\n        public returns(bool result) {\r\n            unlock_payment(id);\r\n            require(tokenMutableData[id].lock_status == false, \"false while unlock the payment\");\r\n            safeTransferFrom(from, to, id, amount, data); //transfer\r\n            return tokenMutableData[id].lock_status;\r\n    }\r\n    */\r\n\r\n    function uri(uint256 id) override public view returns (string memory) {\r\n        require(tokenMutableData[id].adopter_address != address(0), \"The required ID is not this contract owned.\");\r\n        return string(\r\n            abi.encodePacked(\r\n                \"https://ipfs.io/ipfs/bafybeibkrtttj2mtjmuwu26l7dlbmvt5k5qgah7qxmhobv3ps5j232tzdy/stone\",\r\n                Strings.toString(id),\".json\"\r\n            )\r\n        );\r\n    }\r\n\r\n    function feed(uint256 id, uint feed_days, address adopter) public {\r\n        require(adopter == tokenMutableData[id].adopter_address, \"The feeder is not adopter, your stone get angry.\");\r\n        // TBD: require 100100\r\n        // 604800 -> 7\r\n        // TBD: transfer fee get from feeder, may need to write another function about payable transfer.\r\n        tokenMutableData[id].feed += feed_days * 86400 * 1e18 ;\r\n        \r\n    }\r\n\r\n    function get_adopt_time(uint256 id) public view returns(uint){\r\n        return tokenMutableData[id].adopt_date_timestamp;\r\n    }\r\n\r\n    function get_health_point_percentage_or_burn(uint id) public returns(uint256 health_digits18) {\r\n        uint percentage = divide(5184000 - (block.timestamp - get_adopt_time(id)), 5184000) + tokenMutableData[id].feed ;\r\n        if(percentage <= 0){\r\n            _burn(tokenMutableData[id].adopter_address, id, 1);\r\n        }\r\n        return percentage;\r\n    }\r\n    function divide(uint256 a, uint256 b) private pure returns(uint256 int_one_to_digits18 ) {\r\n        assert(b != 0);\r\n        return (a * 1e18) / b;\r\n    }\r\n    \r\n    function get_token_adopter(uint id) public view returns(address adopter){\r\n        return tokenMutableData[id].adopter_address;\r\n    }\r\n\r\n    function get_token_lock_status(uint id) public view returns(bool){\r\n        return tokenMutableData[id].lock_status;\r\n    }\r\n}",
  "sourcePath": "C:\\Users\\peaso\\OneDrive\\Documents\\Solidity-project\\contracts\\MyToken.sol",
  "compiler": {
    "name": "solc",
    "version": "0.8.13+commit.abaa5c0e.Emscripten.clang"
  },
  "schemaVersion": "3.4.13",
  "updatedAt": "2023-06-02T06:24:59.672Z",
  "networkType": "ethereum",
  "devdoc": {
    "kind": "dev",
    "methods": {
      "balanceOf(address,uint256)": {
        "details": "See {IERC1155-balanceOf}. Requirements: - `account` cannot be the zero address."
      },
      "balanceOfBatch(address[],uint256[])": {
        "details": "See {IERC1155-balanceOfBatch}. Requirements: - `accounts` and `ids` must have the same length."
      },
      "isApprovedForAll(address,address)": {
        "details": "See {IERC1155-isApprovedForAll}."
      },
      "owner()": {
        "details": "Returns the address of the current owner."
      },
      "renounceOwnership()": {
        "details": "Leaves the contract without owner. It will not be possible to call `onlyOwner` functions anymore. Can only be called by the current owner. NOTE: Renouncing ownership will leave the contract without an owner, thereby removing any functionality that is only available to the owner."
      },
      "safeBatchTransferFrom(address,address,uint256[],uint256[],bytes)": {
        "details": "See {IERC1155-safeBatchTransferFrom}."
      },
      "safeTransferFrom(address,address,uint256,uint256,bytes)": {
        "details": "See {IERC1155-safeTransferFrom}."
      },
      "setApprovalForAll(address,bool)": {
        "details": "See {IERC1155-setApprovalForAll}."
      },
      "supportsInterface(bytes4)": {
        "details": "See {IERC165-supportsInterface}."
      },
      "transferOwnership(address)": {
        "details": "Transfers ownership of the contract to a new account (`newOwner`). Can only be called by the current owner."
      }
    },
    "version": 1
  },
  "userdoc": {
    "kind": "user",
    "methods": {},
    "version": 1
  }
}